:020000040800F2
:1000000000000120611B0008111E0008151E0008D9
:10001000191E00081D1E0008211E00080000000017
:10002000000000000000000000000000810B00083C
:10003000251E000800000000E10B0008250C000848
:10004000A51B0008A51B0008A51B0008A51B000890
:10005000A51B0008A51B0008A51B0008A51B000880
:10006000A51B0008A51B0008A51B0008A51B000870
:10007000A51B0008A51B0008A51B0008A51B000860
:10008000A51B0008A51B0008A51B0008A51B000850
:10009000A51B0008A51B0008A51B0008A51B000840
:1000A000A51B0008A51B0008A51B0008A51B000830
:1000B000A51B0008A51B0008A51B0008A51B000820
:1000C000A51B0008A51B0008A51B0008A51B000810
:1000D000A51B0008A51B0008A51B0008A51B000800
:1000E000A51B0008A51B0008A51B000800000000B8
:1000F0000000000000000000000000000000000000
:0C01000000000000000000005FF808F1A3
:1001100010B5054C237833B9044B13B10448AFF341
:1001200000800123237010BDEC01002000000000BE
:100130000C010008084B10B51BB108490848AFF383
:1001400000800848036803B910BD074B002BFBD0A3
:10015000BDE81040184700BF00000000F00100207B
:100160000C010008EC01002000000000034613F819
:10017000012B002AFBD1181A0138704781F0004189
:1001800002E000BF83F0004330B54FEA41044FEA7C
:10019000430594EA050F08BF90EA020F1FBF54EA17
:1001A000000C55EA020C7FEA645C7FEA655C00F0B3
:1001B000E2804FEA5454D4EB5555B8BF6D420CDD84
:1001C0002C4480EA020281EA030382EA000083EA07
:1001D000010180EA020281EA0303362D88BF30BDA7
:1001E00011F0004F4FEA01314FF4801C4CEA1131FD
:1001F00002D0404261EB410113F0004F4FEA03335C
:100200004CEA133302D0524263EB430394EA050FE6
:1002100000F0A780A4F10104D5F1200E0DDB02FA55
:100220000EFC22FA05F2801841F1000103FA0EF2E9
:10023000801843FA05F359410EE0A5F120050EF1AF
:10024000200E012A03FA0EFC28BF4CF0020C43FAE0
:1002500005F3C01851EBE37101F0004507D54FF0ED
:10026000000EDCF1000C7EEB00006EEB0101B1F53D
:10027000801F1BD3B1F5001F0CD349085FEA300083
:100280004FEA3C0C04F101044FEA445212F5800F8E
:1002900080F09A80BCF1004F08BF5FEA500C50F12B
:1002A000000041EB045141EA050130BD5FEA4C0C0E
:1002B000404141EB010111F4801FA4F10104E9D197
:1002C00091F0000F04BF01460020B1FA81F308BF8E
:1002D0002033A3F10B03B3F120020CDA0C3208DD5A
:1002E00002F1140CC2F10C0201FA0CF021FA02F135
:1002F0000CE002F11402D8BFC2F1200C01FA02F1A5
:1003000020FA0CFCDCBF41EA0C019040E41AA2BFC9
:1003100001EB0451294330BD6FEA04041F3C1CDA91
:100320000C340EDC04F11404C4F1200220FA04F0B1
:1003300001FA02F340EA030021FA04F345EA03015B
:1003400030BDC4F10C04C4F1200220FA02F001FA1D
:1003500004F340EA0300294630BD21FA04F029469F
:1003600030BD94F0000F83F4801306BF81F4801138
:100370000134013D4EE77FEA645C18BF7FEA655CAB
:1003800029D094EA050F08BF90EA020F05D054EA7D
:10039000000C04BF1946104630BD91EA030F1EBF82
:1003A0000021002030BD5FEA545C05D14000494186
:1003B00028BF41F0004130BD14F580043CBF01F579
:1003C000801130BD01F0004545F0FE4141F470015F
:1003D0004FF0000030BD7FEA645C1ABF194610463A
:1003E0007FEA655C1CBF0B46024650EA013406BF3B
:1003F00052EA033591EA030F41F4002130BD00BFFA
:1004000090F0000F04BF0021704730B54FF48064B6
:1004100004F132044FF000054FF0000150E700BF37
:1004200090F0000F04BF0021704730B54FF4806496
:1004300004F1320410F0004548BF40424FF0000183
:100440003EE700BF42004FEAE2014FEA31014FEAC6
:1004500002701FBF12F07F4393F07F4F81F0605115
:10046000704792F0000F14BF93F07F4F704730B584
:100470004FF4607401F0004521F0004120E700BF17
:1004800050EA010208BF704730B54FF000050AE09E
:1004900050EA010208BF704730B511F0004502D59F
:1004A000404261EB41014FF4806404F132045FEAA1
:1004B000915C3FF4DCAE4FF003025FEADC0C18BF46
:1004C00003325FEADC0C18BF033202EBDC02C2F13C
:1004D000200300FA03FC20FA02F001FA03FE40EACE
:1004E0000E0021FA02F11444C1E600BF70B54FF0CE
:1004F000FF0C4CF4E06C1CEA11541DBF1CEA1355B0
:1005000094EA0C0F95EA0C0F00F0DEF82C4481EA17
:10051000030621EA4C5123EA4C5350EA013518BF37
:1005200052EA033541F4801143F4801338D0A0FB24
:1005300002CE4FF00005E1FB02E506F00042E0FBD1
:1005400003E54FF00006E1FB03569CF0000F18BFD7
:100550004EF0010EA4F1FF04B6F5007F64F540747F
:1005600004D25FEA4E0E6D4146EB060642EAC62112
:1005700041EA55514FEAC52040EA5E504FEACE2E7F
:10058000B4F1FD0C88BFBCF5E06F1ED8BEF1004F82
:1005900008BF5FEA500E50F1000041EB045170BDFE
:1005A00006F0004646EA010140EA020081EA030142
:1005B000B4EB5C04C2BFD4EB0C0541EA045170BD3E
:1005C00041F480114FF0000E013C00F3AB8014F1B8
:1005D000360FDEBF002001F0004170BDC4F1000401
:1005E000203C35DA0C341BDC04F11404C4F1200582
:1005F00000FA05F320FA04F001FA05F240EA0200DD
:1006000001F0004221F0004110EBD37021FA04F612
:1006100042EB06015EEA430E08BF20EAD37070BDCC
:10062000C4F10C04C4F1200500FA04F320FA05F02B
:1006300001FA04F240EA020001F0004110EBD3702D
:1006400041F100015EEA430E08BF20EAD37070BD9D
:10065000C4F1200500FA05F24EEA020E20FA04F376
:1006600001FA05F243EA020321FA04F001F0004125
:1006700021FA04F220EA020000EBD3705EEA430E96
:1006800008BF20EAD37070BD94F0000F0FD101F0C5
:100690000046400041EB010111F4801F08BF013CFE
:1006A000F7D041EA060195F0000F18BF704703F03C
:1006B0000046520043EB030313F4801F08BF013DC3
:1006C000F7D043EA0603704794EA0C0F0CEA13557F
:1006D00018BF95EA0C0F0CD050EA410618BF52EA39
:1006E0004306D1D181EA030101F000414FF000003F
:1006F00070BD50EA410606BF1046194652EA43064D
:1007000019D094EA0C0F02D150EA013613D195EAC0
:100710000C0F05D152EA03361CBF104619460AD108
:1007200081EA030101F0004141F0FE4141F4700112
:100730004FF0000070BD41F0FE4141F4780170BD02
:1007400070B54FF0FF0C4CF4E06C1CEA11541DBF67
:100750001CEA135594EA0C0F95EA0C0F00F0A7F869
:10076000A4EB050481EA030E52EA03354FEA013196
:1007700000F088804FEA03334FF0805545EA1313A9
:1007800043EA12634FEA022245EA111545EA106571
:100790004FEA00260EF000419D4208BF964244F108
:1007A000FD0404F5407402D25B084FEA3202B61A27
:1007B00065EB03055B084FEA32024FF480104FF4FB
:1007C000002CB6EB020E75EB030E22BFB61A75466F
:1007D00040EA0C005B084FEA3202B6EB020E75EB02
:1007E000030E22BFB61A754640EA5C005B084FEA6A
:1007F0003202B6EB020E75EB030E22BFB61A754637
:1008000040EA9C005B084FEA3202B6EB020E75EB41
:10081000030E22BFB61A754640EADC0055EA060E02
:1008200018D04FEA051545EA16754FEA06164FEA45
:10083000C30343EA52734FEAC2025FEA1C1CC0D1F1
:1008400011F4801F0BD141EA00014FF000004FF07E
:10085000004CB6E711F4801F04BF01430020B4F13F
:10086000FD0C88BFBCF5E06F3FF6AFAEB5EB030CF7
:1008700004BFB6EB020C5FEA500C50F1000041EBF4
:10088000045170BD0EF0004E4EEA113114EB5C04C1
:10089000C2BFD4EB0C0541EA045170BD41F4801194
:1008A0004FF0000E013C90E645EA060E8DE60CEA9C
:1008B000135594EA0C0F08BF95EA0C0F3FF43BAFB9
:1008C00094EA0C0F0AD150EA01347FF434AF95EA70
:1008D0000C0F7FF425AF104619462CE795EA0C0F54
:1008E00006D152EA03353FF4FDAE1046194622E721
:1008F00050EA410618BF52EA43067FF4C5AE50EAFB
:1009000041047FF40DAF52EA43057FF4EBAE12E7EA
:100910004FF0FF3C06E000BF4FF0010C02E000BFCB
:100920004FF0010C4DF804CD4FEA410C7FEA6C5CAE
:100930004FEA430C18BF7FEA6C5C1BD001B050EA51
:10094000410C0CBF52EA430C91EA030F02BF90EA3C
:10095000020F0020704710F1000F91EA030F58BFFB
:10096000994208BF90422CBFD8176FEAE37040F05D
:10097000010070474FEA410C7FEA6C5C02D150EAFB
:10098000013C07D14FEA430C7FEA6C5CD6D152EAB6
:10099000033CD3D05DF8040B704700BF844610467B
:1009A00062468C461946634600E000BF01B5FFF77A
:1009B000B7FF002848BF10F1000F01BD4DF808ED4A
:1009C000FFF7F4FF0CBF012000205DF808FB00BF1B
:1009D0004DF808EDFFF7EAFF34BF012000205DF875
:1009E00008FB00BF4DF808EDFFF7E0FF94BF0120C2
:1009F00000205DF808FB00BF4DF808EDFFF7CEFFC3
:100A000094BF012000205DF808FB00BF4DF808ED01
:100A1000FFF7C4FF34BF012000205DF808FB00BFD2
:100A20004FEA410C7FEA6C5C02D150EA013C0AD1EA
:100A30004FEA430C7FEA6C5C02D152EA033C02D1DC
:100A40004FF0000070474FF0010070474FEA41023D
:100A500012F5001215D211D56FF47873B3EB625210
:100A600012D94FEAC12343F0004343EA505311F037
:100A7000004F23FA02F018BF404270474FF00000C9
:100A8000704750EA013005D111F0004008BF6FF007
:100A9000004070474FF00000704700BF00F10803AE
:100AA00043604FF0FF328260C36003610023036044
:100AB000704700BF00230361704700BF30B40D686A
:100AC000B5F1FF3F01D1026907E000F1080200E043
:100AD0001A4653681C68A542FAD253684B60996065
:100AE0008A605160086103680133036030BC70475D
:100AF00003694268816891608268416851605A6800
:100B0000904201D182685A60002202611A68013A5B
:100B10001A601868704700BF82B0002301934FF03D
:100B2000BF0383F31188BFF36F8FBFF34F8F019B18
:100B3000002BFCD002B0704706480068006880F3C4
:100B4000088862B661B6BFF34F8FBFF36F8F00DFC7
:100B500000BF000008ED00E04FF0807340F8043C57
:100B600021F0010140F8081C034B40F80C3C40F810
:100B7000202C4038704700BF190B0008000000000F
:100B8000074B19680868B0E8F00F80F30988BFF3D5
:100B90006F8F4FF0000080F311884EF00D0E7047FC
:100BA000BC4600204FF0BF0383F31188BFF36F8F63
:100BB000BFF34F8F024A136801331360704700BFC1
:100BC00000000020034A1368013B13600BB983F354
:100BD00011887047000000200000000000000000A5
:100BE000EFF30980BFF36F8F0D4B1A6820E9F00F08
:100BF00010602DE908404FF0BF0080F3118800F02D
:100C00008FFC4FF0000080F31188BDE808401968A0
:100C10000868B0E8F00F80F30988BFF36F8F704762
:100C2000BC46002008B54FF0BF0383F31188BFF323
:100C30006F8FBFF34F8F00F00FFB18B14FF0805252
:100C4000024B1A60002383F3118808BD04ED00E015
:100C5000054B00221A6005490A600549054A1160E2
:100C600007221A60704700BF10E000E018E000E0C3
:100C70003F19010014E000E010B50B4B1A6842F474
:100C80007F021A601A6842F07F421A60FFF7E0FFA5
:100C90000024064B1C60FFF74FFF00F041FCFFF7FC
:100CA0003BFF204610BD00BF20ED00E0000000200B
:100CB000104A12F0070F07D0D11D21F00701C1F52E
:100CC000884313440A4601E04FF488430A4802600F
:100CD000002141601344083B23F0070307480360E9
:100CE00059601960991A51601360054B1960054BE2
:100CF000196070472002002014020020100200201A
:100D0000204600200C020020124A00E01A46136818
:100D10008342FBD310B451685418A04203D14068F9
:100D200001445160104641684418A3420CD10A4C5A
:100D30002468A34206D05B681944416013681B68AD
:100D4000036002E0046000E00360904200D01060A5
:100D500010BC7047140200201002002070B5054638
:100D600000F072FA294B1B680BB9FFF7A1FF4DB1D8
:100D700005F00703C3F11003DA43954201D81D447F
:100D800000E00025002D36DB002D36D0204B1B68FF
:100D90009D4234D81F4A146801E022461C4663680D
:100DA0009D4202D92368002BF7D1184B1B689C4247
:100DB00027D0166808362368136063685B1B102B06
:100DC00004D9601943606560FFF79EFF62681049AF
:100DD0000B689B1A0B60104909688B4201D20E49BF
:100DE0000B6042F000426260002323600B4A1368EC
:100DF0000133136006E0002604E0002602E000262E
:100E000000E0002600F0D4FA304670BD1002002049
:100E10000C020020140200202046002008020020BE
:100E200000B338B5A0F1080550F8042C002A18DAF0
:100E300050F8081CA9B9044622F0004240F8042CDE
:100E400000F002FA54F8043C074A11680B4413609E
:100E50002846FFF759FF054A13680133136000F075
:100E6000A7FA38BD704700BF0C0200201C0200200A
:100E7000074B1B681B6823B94FF0FF32054B1A6004
:100E80007047034B1B68DB681A68024B1A60704797
:100E900028460020DC46002010B50446006BFFF712
:100EA000BFFF2046FFF7BCFF10BD00BF2DE9F84390
:100EB00080469946089D099F0A9C236B02F1804257
:100EC000013A03EB820626F0070641B90EE0D05C3A
:100ED000E11881F83400D15C29B1013301E00A4600
:100EE00000230F2BF3D9002384F84330042D00D9BD
:100EF0000425E5626564201DFFF7DCFD04F11800A0
:100F0000FFF7D8FD2461C5F10505A56164624A4675
:100F100041463046FFF720FE206007B13C60BDE847
:100F2000F88300BF38B5002407E004EB8402930087
:100F30000E481844FFF7B2FD0134042CF5D90C4DCE
:100F40002846FFF7ABFD0B4C2046FFF7A7FD0A48EC
:100F5000FFF7A4FD0948FFF7A1FD0948FFF79EFD33
:100F6000084B1D60084B1C6038BD00BF4C4600207C
:100F7000E4460020F8460020C0460020304600200D
:100F80000C470020284600204446002038B504467F
:100F9000FFF708FE284A136801331360274B1B68CC
:100FA0003BB9264B1C601368012B0DD1FFF7BAFF2C
:100FB0000AE0234B1B683BB9204B1B68DA6AE36AE3
:100FC0009A4201D81D4B1C601E4A136801331360FE
:100FD000E36A012202FA03F11B4802680A43026035
:100FE0001A4A03EB8303990011444B68A360996884
:100FF000E1609868211D41609960E36A9800C51816
:10100000A9005518656151580131034498001150E9
:10101000FFF7D8FD0A4B1B686BB1084B1B68DA6AF7
:10102000E36A9A4207D24FF08052094B1A60BFF32D
:101030004F8FBFF36F8F38BDB8460020BC460020ED
:101040002C460020E0460020204700204C4600208F
:1010500004ED00E010B514E0FFF7A4FD0B4BDB68D6
:10106000DC68201DFFF744FD094A1368013B13604B
:10107000084A1368013B1360FFF7A4FD2046FFF701
:101080000BFF044B1B68002BE6D110BD304600203F
:10109000B8460020B446002008B5FFF7DBFF064B3A
:1010A0001B68012BF9D94FF08052044B1A60BFF333
:1010B0004F8FBFF36F8FF0E74C46002004ED00E048
:1010C00070B504460E46244B1D68244B1868043046
:1010D000FFF70EFD50B9214B1B68DA6A012303FAB2
:1010E00002F21F490B6823EA02030B60B4F1FF3FD1
:1010F00015D1A6B11B4A5168184B18688160186851
:101100008C68C4608C6818680430606018680430AB
:1011100088601B685A6113680133136070BD2C44EA
:101120000E4B1B685C60A54207D90F4B18680B4B30
:1011300019680431FFF7C2FC70BD0C4B1868074BEF
:1011400019680431FFF7BAFC094B1B689C4201D2B5
:10115000074B1C6070BD00BFD8460020BC46002075
:10116000204700200C47002044460020284600204D
:10117000DC4600202DE9F04385B006460F461546B3
:1011800098469000FFF7EAFD80B181465420FFF7B2
:10119000E5FD044630B15422002100F050FEC4F8B1
:1011A000309004E04846FFF73BFE00E000248CB19D
:1011B0000023039302940D9B01930C9B00934346E1
:1011C0002A4639463046FFF771FE2046FFF7DEFE1D
:1011D000012001E04FF0FF3005B0BDE8F08300BF13
:1011E00000B583B0114B0193002300938022104976
:1011F0001048FFF7BFFF012813D14FF0BF0383F35F
:101200001188BFF36F8FBFF34F8F4FF0FF320A4B40
:101210001A600122094B1A600022094B1A60FFF77D
:101220002BFD084B1B6803B05DF804FBD44600207F
:101230009C40000899100008DC4600202C46002045
:10124000D846002004000020024A136801331360CE
:10125000704700BFB0460020F8B54A4B1B68002B12
:1012600040F08880484B1C6801341C605CB9474AD8
:101270001168474B186810601960464A13680133BB
:101280001360FFF7F5FD444B1B689C4203D200201E
:1012900061E0012000E000203C4B1B681B6823B983
:1012A0004FF0FF323C4B1A6055E0384B1B68DB684F
:1012B000DB685A68944202D2374B1A604BE05A6995
:1012C0009968DD688D60D9689D684D6051681E1D04
:1012D000B14201D1D96851600021596111680139C9
:1012E00011609A6A8AB1D9691D6A8D60196ADD69CF
:1012F0004D60556803F118018D4201D1196A5160A2
:1013000000219962116801391160DA6A012101FA3C
:1013100002F5224F396829433960214902EB8202E4
:1013200095000D446A689A609568DD6095686E6006
:101330009660DA6A9600B718BD004F195F614D5983
:101340000135324496008D51DA6A164B1B68DB6A10
:101350009A429ED8A0E7134B1B68DB6A03EB83031A
:101360009A000F4B9B58012B00D901200E4B1B6894
:1013700033B9F8BD0D4A1368013313600020F8BD7E
:101380000120F8BDB0460020D846002028460020A5
:101390004446002024460020DC4600202047002050
:1013A0004C460020BC460020244700204846002030
:1013B00038B5FFF7F7FB444B1A68013A1A601B680F
:1013C000002B79D1414B1B68002B52D1002476E0D1
:1013D0003F4BDB68DB689A6AD969186A8860196ACA
:1013E000D8694860506803F11801884201D1196A30
:1013F0005160002199621168013911605A69996838
:10140000D8688860D9689868486051681C1DA142F6
:1014100001D1D96851600021596111680139116009
:10142000DA6A012101FA02F02A4D29680143296094
:10143000294902EB82029000084442689A60906851
:10144000D860906844609460DA6A9400A518A80097
:101450000D185D6108580130224494000851D96A82
:101460001E4A1268D26A914204D301211C4A1160BB
:1014700000E00023164A1268002AA9D10BB1FFF739
:10148000F7FC184B1C6854B1FFF7E6FE10B10122BF
:10149000134B1A60013CF7D10022124B1A60104B1B
:1014A0001B685BB14FF080520F4B1A60BFF34F8F38
:1014B000BFF36F8F012402E0002400E00024FFF757
:1014C00081FB204638BD00BFB0460020B846002052
:1014D000C0460020204700204C460020BC4600208B
:1014E000244700204846002004ED00E010B548B134
:1014F0000446FFF7A9FE00212046FFF7E1FDFFF7B4
:1015000057FF00E0002038B94FF08052034B1A60BB
:10151000BFF34F8FBFF36F8F10BD00BF04ED00E02E
:10152000184B1B681BB10122174B1A60704730B46F
:101530000022154B1A60154B1B68B3FA83F3DBB21C
:10154000C3F11F03124D9900CA1890002844426845
:101550005468446019448A0008322A44944205D1F0
:10156000606803EB83018A002A44506003EB830325
:101570009A00074B1A445368DA68064B1A6030BC6D
:10158000704700BFB04600202447002020470020BD
:101590004C460020BC46002082B0002301930093FB
:1015A0002C4A136843F4803313602A4B1B6803F4FE
:1015B00000330093019B01330193009B1BB9019BF6
:1015C000B3F5A06FF1D1234B1B6813F4003F02D099
:1015D0000123009301E000230093009B012B36D1EF
:1015E0001D4B1A6842F010021A601A6822F00302BA
:1015F0001A601A6842F002021A60A3F580535A6812
:101600005A605A685A605A6842F480625A605A684E
:1016100022F47C125A605A6842F4E8125A601A683E
:1016200042F080721A600B4B1B6813F0007FFAD0F7
:10163000084B5A6822F003025A605A6842F00202CC
:101640005A60044B5B6803F00C03082BF9D102B01D
:10165000704700BF001002400020024008B5FFF7AD
:101660009BFF08BD08B5104B1A6842F001021A60D2
:1016700059680E4A0A405A601A6822F0847222F4AD
:1016800080321A601A6822F480221A605A6822F4A2
:10169000FE025A604FF41F029A60FFF7DFFF4FF01F
:1016A0000062034B9A6008BD001002400000FFF882
:1016B00000ED00E040F0BF6040F40030014BD86026
:1016C000704700BF00ED00E0C378FBB1154BDB684D
:1016D000DB43C3F30223C3F104010F22DA40437852
:1016E00003FA01F1837813400B431B010278DBB24C
:1016F0000D490A4482F800330378580903F01F03A8
:10170000012202FA03F341F82030704703785A09A6
:1017100003F01F03012101FA03F32032024941F8CB
:101720002230704700ED00E000E100E021F0604170
:1017300021F07F010843014B9860704700ED00E005
:10174000042805D1054A136843F004031360704769
:10175000024A136823F004031360704710E000E0AE
:10176000F0B4CB7803F00F02154613F0100F01D040
:101770008D7815430B78E3B10668002316E001224B
:101780009A400C8832EA04040FD19C000F27A7402E
:1017900026EA070605FA04F42643CC78282C01D162
:1017A000426102E0482C00D102610133072BE6D9E7
:1017B00006600B88FF2B1ED94668002318E003F152
:1017C00008040122A2400C8832EA04040FD19C00D4
:1017D0000F27A74026EA070605FA04F42643CC782B
:1017E000282C00D14261CC78482C00D10261013311
:1017F000072BE4D94660F0BC704700BF0AB1016115
:1018000070474161704700BF0D4B1A6842F00102FA
:101810001A6059680B4A0A405A601A6822F08472AA
:1018200022F480321A601A6822F480221A605A6800
:1018300022F4FE025A604FF41F029A60704700BF04
:10184000001002400000FFF80D4B1A6822F48032AD
:101850001A601A6822F480221A60B0F5803F03D023
:10186000B0F5802F06D07047054A136843F48033E3
:1018700013607047024A136843F4A0231360704753
:1018800000100240034A536823F47C1301431943B8
:101890005160704700100240014B1860704700BF54
:1018A00060004242034A536823F003031843506028
:1018B000704700BF00100240024B586800F00C0057
:1018C000704700BF00100240034A536823F0F00342
:1018D00018435060704700BF00100240034A53682D
:1018E00023F4E06318435060704700BF00100240CB
:1018F000034A536823F4605343EAC00050607047C2
:101900000010024010B4294B5B6803F00C03042B59
:1019100005D0082B06D013BB254B036021E0244BD8
:1019200003601EE0214A53685268C3F383430233C5
:1019300012F4803F04D11F4A02FB03F3036010E05E
:101940001A4A526812F4003F04D01A4A02FB03F309
:10195000036006E0164A02FB03F3036001E0144B48
:10196000036012494B68C3F30313134CE35CDAB210
:101970000368D34043604A68C2F30222A25CD2B239
:1019800023FA02F282604A68C2F3C222A25CD2B297
:10199000D340C3604A68C2F3813208498A5CD2B23C
:1019A000B3FBF2F3036110BC704700BF00100240AC
:1019B00000127A0000093D000C0000200800002001
:1019C00021B1054B9A69104398617047024A9369A7
:1019D00023EA0000906170470010024021B1054BDE
:1019E000DA691043D8617047024AD36923EA0000DC
:1019F000D0617047001002404309012B02D10A4B0D
:101A00001B6806E0022B02D1074B1B6A01E0064B64
:101A10005B6A00F01F0023FA00F010F0010F01D004
:101A200001207047002070470010024030B587B099
:101A300004460D46038A9BB2CA8823F440531343DD
:101A4000038283899BB28A88098968890A43024391
:101A500023F4B05323F00C031343A381A38A9BB256
:101A6000AA8923F440731343A38201A8FFF74AFF16
:101A70001E4B9C4201D1049A00E0039AA38913F4FF
:101A8000004F08D002EB820202EB82022968490073
:101A9000B2FBF1F107E002EB820202EB820229685D
:101AA0008900B2FBF1F1124BA3FB01235B091B017F
:101AB0001A09642000FB1212A18911F4004F08D00A
:101AC000D20032320A49A1FB0212C2F342121A4377
:101AD00007E0120132320649A1FB0212C2F343129F
:101AE0001A4392B2228107B030BD00BF00380140D6
:101AF0001F85EB5129B183899BB243F40053838145
:101B0000704783899BB223F400539BB28381704753
:101B100010B4C1F3421401F01F01012303FA01F1D3
:101B20009C4201D10C3004E0022C01D1103000E0C5
:101B300014301AB103681943016003E0036823EA13
:101B40000101016010BC7047C1F30801818070473A
:101B50000388194201D0012070470020704700BF60
:101B6000002103E00A4B5B584350043109480A4BFB
:101B700042189A42F6D3094A02E0002342F8043B95
:101B8000074B9A42F9D3FFF76DFD00F01DF970473E
:101B90009043000800000020EC010020EC01002030
:101BA00038470020FEE7000000B583B04FF4A06086
:101BB000FFF780FD25238DF8043001238DF80530D3
:101BC0008DF806308DF8073001A8FFF77DFD03B0D2
:101BD0005DF804FB10B586B001210420FFF7F0FE8C
:101BE00001214FF48040FFF7EBFE4FF40073ADF896
:101BF000143018238DF8173003238DF81630194C44
:101C000005A92046FFF7ACFD4FF48063ADF8143012
:101C100004238DF8173005A92046FFF7A1FD4FF4E6
:101C2000E13301930023ADF80830ADF80A30ADF888
:101C30000C30ADF810300C23ADF80E3004F54054E4
:101C400001A92046FFF7F2FEFFF7AEFF012240F2A6
:101C500025512046FFF75CFF01212046FFF74AFF90
:101C600006B010BD0008014010B50446FFF76CFF38
:101C700080212046FFF76CFF0028F9D010BD00BF7F
:101C800002280FDC70B50D461646002404E0084813
:101C9000FFF7EAFF01340135297831B1B442F6DBB0
:101CA000204670BD4FF0FF307047204670BD00BF2A
:101CB0000038014000B583B001211020FFF780FEFD
:101CC0004FF40053ADF8043010238DF80730032390
:101CD0008DF8063001A90348FFF742FD03B05DF817
:101CE00004FB00BF0010014010B5FFF7E3FF0B4CF1
:101CF00000224FF400512046FFF780FD4FF4FA70A8
:101D0000FFF7F4FB01224FF400512046FFF776FD68
:101D10004FF4FA70FFF7EAFBE9E700BF001001405B
:101D200008B5FFF757FF044800F036FC4FF47A700F
:101D3000FFF7DCFBF7E700BFA440000808B5FFF79A
:101D400063FD4FF48030FFF77FFD3120FFF754FE35
:101D50000028FAD002221B4B1A600020FFF7B4FDC6
:101D60000020FFF7C5FD4FF48060FFF7B7FD4FF48B
:101D700080114FF48030FFF785FD0120FFF78CFDC7
:101D80003920FFF739FE0028FAD00220FFF78AFD3C
:101D9000FFF792FD0828FBD101217D20FFF710FEFF
:101DA00001214FF48040FFF719FE00214FF0006041
:101DB000FFF7BCFC4FF44070FFF77CFC0420FFF7FA
:101DC000BFFC08BD0020024030B583B0FFF7B6FF6E
:101DD00000240194012500952346642208490948FE
:101DE000FFF7C8F901940095234664220649074885
:101DF000FFF7C0F9FFF7F4F9204603B030BD00BF8C
:101E0000CC400008E91C0008D8400008211D00084B
:101E1000704700BFFEE700BFFEE700BFFEE700BF60
:101E2000FEE700BF704700BF10B5431E0A44914251
:101E300004D011F8014B03F8014FF8E710BD034639
:101E40000244934202D003F8011BFAE770472DE9E0
:101E5000F04788B0149F002B1E461299B8BF03F1BB
:101E6000004327F02007B6BF1E4600232D23462F30
:101E70001446109DDDF84CA00B7003D0452F03D104
:101E8000013501E0032300E0022307AA049206AA19
:101E900003928DE828042246334600F0D5FC472FF4
:101EA000804602D1119BDB0728D5462F08EB050998
:101EB00011D198F80030302B0AD10022002320469F
:101EC0003146FEF77BFD18B9C5F10105CAF800508F
:101ED000DAF8003099440022002320463146FEF70C
:101EE0006DFD08B9302202E0CDF81C9006E0079B9A
:101EF000994503D9591C07911A70F8E74046079B8A
:101F0000159AC8EB0303136008B0BDE8F0870346D9
:101F100073B50029B8BF494203F8022BB4BF2D2284
:101F20002B22092942701ADD0DF1070216460A25F7
:101F300091FBF5F405FB1411092C01F1300102F8B5
:101F4000011D2146F4DC3031541E02F8011CB4425C
:101F50001A460AD214F8012B03F8012BF7E71A46A8
:101F60003024214402F8024B5970101A02B070BD9F
:101F70002DE9F04F91B00C46DDF8688016461F46FB
:101F8000054601F073FB036818460993FEF7EEF867
:101F900000230E93D8F800300A90073323F007038C
:101FA00003F1080294F81890D4F800B0C8F80020A3
:101FB000D3E90023C4E91223D4F84CA0D4F8488014
:101FC0002AF000430B934FF0FF32A74B40460B998A
:101FD000FEF726FDA0B94FF0FF32A34B40460B9908
:101FE000FEF700FD60B90022002340465146FEF78F
:101FF000EFFC10B12D2384F843309C4B9C4A0AE03F
:102000004246534640465146FEF70AFD002800F07E
:102010009281984B984AB9F1470F8CBF90469846E9
:10202000032323612BF0040323604FF0000A3DE0FB
:10203000B9F1670F00F08A81B9F1470F00F086818E
:1020400023600193636800210DF133020590029231
:102050000093424653460691CDF81090CDF80CE01F
:102060002846FFF7F4FE09F0DF03472B804600F017
:102070008481B9F1650F0D9900F28D8101394A46CD
:1020800004F150000D91FFF742FF0E9A824683182B
:10209000012A236100F37C812268D10700F1788155
:1020A0009DF8333013B12D2384F843300097334625
:1020B0000FAA2146284600F09FF9013002D14FF0C7
:1020C000FF3096E123685A0501D4236965E0B9F130
:1020D000650F40F2D580D4E9120100220023FEF7FB
:1020E0006DFC78B30123654A31462846B847013074
:1020F000E5D00E9B0D9A9A420BDB2368D80708D4D3
:1021000023689B0740F111814FF0000804F1190981
:1021100006E10A9B099A31462846B8470130CED0DD
:102120004FF0000804F11A090E9B013B9845E7DACD
:1021300001234A4631462846B8470130BFD008F14E
:102140000108F1E70D9B002B29DC01234B4A3146A6
:102150002846B8470130B2D00D9B23B90E9B13B966
:102160002368D907CCD50A9B099A31462846B84737
:102170000130A4D04FF0000904F11A0A0D9B5B4214
:10218000994509DA0123524631462846B8470130BD
:1021900095D009F10109F1E70E9B4246A7E00E9A9E
:1021A000A36D9A42A8BF1A46002A914606DC4FF05A
:1021B000000A29EAE97904F11A0B11E013463146C5
:1021C00042462846B8470130F1D178E701235A4604
:1021D00031462846B84701303FF471AF0AF1010A91
:1021E000A36DC9EB03029245F0DB08EB03090D9ADE
:1021F0000E9B9A420FDB2368DA070CD40E9B0D9AD4
:102200009844C9EB08089B1A9845A8BF9846B8F1AE
:10221000000F08DC0FE00A9B099A31462846B847B0
:102220000130EBD14BE743464A4631462846B84792
:1022300001303FF444AF4FF0000928EAE87804F198
:102240001A0A09E00123524631462846B8470130B0
:102250003FF435AF09F101090D9A0E9B9B1AC8EBAB
:1022600003039945EEDB4BE7FFFFEF7FE8400008F3
:10227000EC400008F0400008F4400008F840000876
:102280000E9A012A01DCDB0738D50123424631468C
:102290002846B84701303FF412AF0A9B099A3146ED
:1022A0002846B84701303FF40AAFD4E912010022B2
:1022B0000023FEF783FB20B14FF0000804F11A0958
:1022C0000EE00E9B08F10102013B19E001234A4692
:1022D00031462846B84701303FF4F1AE08F1010815
:1022E0000E9B013B9845F1DB534604F15002314609
:1022F0002846B84701307FF403AFE0E642460123A9
:1023000031462846B8470130EED1D8E601234A4687
:1023100031462846B84701303FF4D1AE08F10108F4
:10232000E3680F9A9B1A9845F0DBE0680F9B984290
:10233000B8BF18465DE062680EA8531C0DF1340E5C
:102340004BF480637FF474AE062201E012B90122DF
:10235000626075E6002106910DF133018DE80C00F5
:10236000236005904246CDF81090CDF80CE0029124
:1023700053462846FFF76BFD80460D9BD81C02DBB9
:10238000626893421DDDA9F102095FFA89F970E6DE
:102390000133236184E6B9F1660F14D10029636823
:1023A00007DD216113B92268D2071DD501330B4423
:1023B00019E013B92268D00701D5023313E00123D5
:1023C00011E04FF067090D9B0E9A934205DB2268DE
:1023D0002361D10708D5013305E0002BD4BFC3F139
:1023E00002030123134423610D9B4FF0000AA365F0
:1023F00056E611B0BDE8F08F2DE9F04791461F4633
:102400000A698B6806469342B8BF1346C9F8003084
:1024100091F843200C46DDF8208012B10133C9F851
:1024200000302368990642BFD9F800300233C9F85A
:102430000030256815F0060510D104F1190A07E0EF
:102440000123524639463046C04701301AD0013583
:10245000E368D9F800209B1A9D42F1DB94F84330E1
:102460002268003318BF012392060FD5E1183020EF
:1024700081F843005A1C94F845102244023382F834
:10248000431003E04FF0FF30BDE8F08704F1430252
:1024900039463046C0470130F4D02268D9F80050A0
:1024A000E36802F00602042A08BF5D1B2269A368E4
:1024B0000CBF25EAE57500259342C4BF9B1AED18B1
:1024C0004FF000091A344D4509D001232246394600
:1024D0003046C0470130D5D009F10109F3E70020AB
:1024E000BDE8F08770B50E46054618B183690BB993
:1024F00001F032F8AB69AC6813B9284601F02CF84A
:10250000224B9C4201D16C6808E0214B9C4201D1D6
:10251000AC6803E01F4B9C4208BFEC68A3891B0713
:1025200001D523693BB92146284600F091F810B146
:102530004FF0FF3070BD013EA36816F8011F013B4C
:10254000A36091B1002B04DAA269934206DB0A2949
:1025500004D023685A1C22601970EDE722462846F1
:1025600000F022F80130E7D1E2E7002B08DA22463A
:102570000A21284600F018F80130D9D00A2070BD91
:1025800023680A205A1C2260187070BD0841000898
:102590002841000848410008024B01461868FFF72F
:1025A000A1BF00BF7C000020F8B50F4614460546C9
:1025B00018B183690BB900F0CFFF224B9C4201D1C7
:1025C0006C6808E0204B9C4201D1AC6803E01F4BD3
:1025D0009C4208BFEC68A369A360A3891A0709D5C8
:1025E00023693BB123682069FEB2181A63699842D7
:1025F0000FDB08E02146284600F02AF80028F1D039
:102600004FF0FF361BE02146284600F03BFF002834
:10261000F6D1A3680130013BA36023685A1C2260F5
:102620001F706369984204D0A389DB0707D50A2E7F
:1026300005D12146284600F025FF0028E0D130468C
:10264000F8BD00BF084100082841000848410008C3
:10265000324B70B51D6806460C4625B1AB6913B9FF
:10266000284600F079FF2E4B9C4201D16C6808E0AF
:102670002C4B9C4201D1AC6803E02B4B9C4208BF21
:10268000EC68B4F90C309AB215071DD4D00602D408
:10269000092232603AE0510712D5616B41B104F171
:1026A0004403994202D0304601F03AFB00236363B1
:1026B000A38923F02403A38100236360236923609B
:1026C000A38943F00803A38123694BB9A38903F4C9
:1026D0002073B3F5007F03D02146304600F0F8FFA9
:1026E000A28912F0010305D00023A36063695B4255
:1026F000A36103E0920758BF6369A36023695BB9D4
:10270000B4F90C3003F0800080B230B143F04003E4
:10271000A3814FF0FF3070BD002070BD7C00002011
:102720000841000828410008484100082DE9F74FFA
:1027300003690C6980469C427FDC013C01F114076F
:102740004FEA840E00F1140606EB0E0357F82450EE
:10275000019356F824300135B3FBF5F507EB0E096C
:10276000C5B34FF0000A3846B446D34650F8043B90
:102770009AB205FB02A21B0C4FEA124A05FB03A307
:1027800092B2C2EB0B0BBCF800204FEA134A5A443A
:102790001FFA83FBDCF800308145CBEB134303EBDE
:1027A000224392B242EA03424FEA234B4CF8042BF5
:1027B000DCD256F80E306BB9019B043B9E421A46A0
:1027C00002D3C8F8104005E01268043B002AF8D193
:1027D000013CF3E7404601F0CCF900282BDB304602
:1027E00001354FF0000E57F8042B036891B2C1EB8E
:1027F0000E0E120C99B27144C2EB134303EB21434A
:1028000089B24FEA234EB94541EA034340F8043BFD
:10281000E9D256F8242006EB840362B9043B9E42B9
:102820001A4602D3C8F8104005E01268043B002A9B
:10283000F8D1013CF3E7284600E0002003B0BDE8F2
:10284000F08F0000000000002DE9F04F456A95B0C0
:102850008246219CCDE9022345B9102000F074FF87
:10286000CAF82400456085600560C560DAF8243048
:10287000196859B15A68012393404A608B605046E9
:1028800000F09FFFDAF8243000221A60039BA04A70
:10289000002BBDBF01232360039B0023BCBF23F09B
:1028A00000430393DDF80C80A8BF236028F00043A9
:1028B0001B0D1B0593421DD142F20F73209A13602A
:1028C000029B43B9934A944BC8F31300002814BFEA
:1028D0001846104600E09048229B002B00F04685E9
:1028E000C37813B100F1080300E0C31C229A1360FF
:1028F00000F03CBDDDE902450022002320462946C8
:10290000FEF75CF8074658B1209A01231360229B1A
:10291000002B00F01E8581481860013800F026BDAC
:1029200012AB019313AB009322462B46504601F0A5
:102930009BF9C8F30A56049056B1C5F3130343F04C
:102940007F51204641F44011A6F2FF3611971DE059
:10295000139B129E1E4406F23243202B0ADD029A7C
:1029600006F21240C3F1400322FA00F008FA03F322
:10297000184304E0C3F12000029B03FA00F0FDF7C6
:102980003FFD0123A1F1F871013E11930022644B38
:10299000FDF7F8FB58A3D3E90023FDF7A7FD58A3E3
:1029A000D3E90023FDF7F0FB044630460D46FDF762
:1029B00037FD55A3D3E90023FDF798FD02460B46EA
:1029C00020462946FDF7E0FB04460D46FEF73EF89B
:1029D00000228346002320462946FDF7F9FF58B11F
:1029E0005846FDF71DFD02460B4620462946FDF7D9
:1029F000E5FF08B90BF1FF3BBBF1160F0DD8DDE980
:102A00000223484901EBCB01D1E90001FDF7FEFFAC
:102A100030B10BF1FF3B002300E00123109300E0F5
:102A20001090129B9E1B731E079343BFC3F10008B7
:102A3000002307934FF00008BBF1000F06DB079B54
:102A4000CDF82CB05B440793002705E00023CBEBC7
:102A50000808CBF100070B931E9B092B28D8052BE8
:102A6000C4BF043B1E931E9BC8BF0025A3F10203F5
:102A7000D8BF0125032B20D8DFE803F0060E02049F
:102A8000012302E0012308E000230A931F9B002B8F
:102A90001DDD9946059321E000230A931F9B0BEB54
:102AA000030909F10103012B0593B8BF012315E0C8
:102AB000012500231E930A9501E001230A934FF09C
:102AC000FF390022CDF8149012231F9206E04FF038
:102AD00001094B46CDF81490CDF87C90DAF82440EB
:102AE00000226260042101F114029A421CD862683B
:102AF000490001326260F6E761436F63A787D23F06
:102B0000B3C8608B288AC63FFB799F501344D33FDC
:102B10000000F07FFA40000803410008F940000877
:102B20000000F83F684100086168504600F014FE5C
:102B3000DAF8243020601B680693059B0E2B00F208
:102B40005B81002D00F05881DDE90234BBF1000FFC
:102B5000CDE90E3430DD9F4A0BF00F034FEA2B1501
:102B600002EBC303E80618CBCDE908340CD5DDE948
:102B70000E01994B05F00F05D3E90823FDF7E0FDA1
:102B80000324CDE9020100E00224934E6DB1E90770
:102B900008D5DDE90801D6E90023FDF7A7FCCDE95A
:102BA000080101346D100836F0E7DDE90823DDE99E
:102BB0000201FDF7C5FD20E0CBF1000505B3DDE91D
:102BC0000E01844B05F00F0203EBC203D3E900238F
:102BD000FDF78CFCCDE902017F4E2D11002302246C
:102BE00055B1EA0705D5D6E90023FDF77FFC01348E
:102BF00001236D100836F3E71BB1CDE9020100E0B7
:102C00000224109BE3B1DDE902560022734B2846F3
:102C10003146FDF7DDFE98B1059B8BB1B9F1000F90
:102C200040F3E6800BF1FF330893314600226C4BF2
:102C30002846FDF75BFC0134CDE902014E4602E077
:102C4000059ECDF820B02046FDF7EAFBDDE9022322
:102C5000FDF74CFC634B0022FDF796FAA1F150738F
:102C600004460C931D46D6B9DDE9020100225E4BF5
:102C7000FDF788FA22460C9BCDE90201FDF7C6FE5E
:102C8000002840F03F820C99224601F10043DDE923
:102C90000201FDF79DFE002840F02B82A8E00A9A71
:102CA0004C4B711E002A49D003EBC103D3E900232A
:102CB00000204E49FDF744FD22462B46FDF762FAFF
:102CC000CDE90C01069CDDE90201FDF7BFFE0546DA
:102CD000FDF7A6FB02460B46DDE90201FDF752FABD
:102CE000DDE90C23303504F8015BCDE90201FDF785
:102CF0006FFE002840F01D83DDE9022300203749E4
:102D0000FDF740FADDE90C23FDF762FE002840F0F4
:102D1000D180069BE31AB3426ADADDE90C01002296
:102D20002F4BFDF7E3FB0022CDE90C01DDE90201A9
:102D30002B4BFDF7DBFBCDE90201C4E703EBC1013F
:102D40002246D1E900012B46FDF7D0FB069BCDE9D9
:102D50000C011D469C19DDE90201FDF777FE0646D0
:102D6000FDF75EFB02460B46DDE90201FDF70AFABC
:102D7000303605F8016BAC42CDE902014FF000029C
:102D800022D11A4BDDE90C01FDF7FEF902460B4694
:102D9000DDE90201FDF73AFE002840F08B80DDE915
:102DA0000C2300201149FDF7EDF902460B46DDE941
:102DB0000201FDF70DFED8B114F8013C621E302B64
:102DC00040F0B7821446F7E7054BFDF78FFBCDE9DE
:102DD0000201C0E768410008304200080000F03FEF
:102DE0000000244000001C40000014400000E03FB0
:102DF000DDE90E34CDE90234139B002B7CDBBBF103
:102E00000E0F79DCAB4B03EBCB03D3E900671F9BC1
:102E1000002B14DA059B002B11DC40F06C810022A2
:102E2000A54B30463946FDF761FBDDE90223FDF78E
:102E3000E3FD059D2E46002840F05F8165E1069C7C
:102E4000DDE9028932463B4640464946FDF778FCBB
:102E5000FDF7FCFD0546FDF7E3FA32463B46FDF77C
:102E600045FB0B46024649464046FDF78BF905F106
:102E7000300E069B04F801EBC3EB040E059B734573
:102E80002DD102460B46FDF77FF980468946024662
:102E90000B4630463946FDF79BFD78B942464B4616
:102EA00030463946FDF78AFD002800F04482EB07E2
:102EB00004D440E2DDF820B000E01C4614F8012CF8
:102EC000631E392A07D1069A9A42F6D10699302212
:102ED0000BF1010B0A701A7801321A702BE20022F2
:102EE000764BFDF703FB0022002380468946FDF761
:102EF00065FD0028A6D01EE20A9A002A2BD01E9A51
:102F0000012A0ADC119A12B103F2334302E0129B48
:102F1000C3F136033D46444613E0059B5D1EAF42B8
:102F2000BFBF0B9BEA1B9B180B93059BB6BF2F469D
:102F30007D1B0025002BA7BF4446059BC3EB08045F
:102F40000023079A01211A4450469844079200F042
:102F5000D7FC064602E03D4644460A9E5CB1079B0C
:102F6000002B08DDA342A8BF2346079AC3EB08083D
:102F7000E41AD31A0793002F1DDD0A9BABB18DB164
:102F800031462A46504600F055FD049A0146064651
:102F9000504600F0BEFC04990890504600F011FC29
:102FA000089B04937A1B06D000E03A4604995046E9
:102FB00000F040FD04900121504600F0A1FC0B9B65
:102FC00005465BB31A460146504600F033FD1E9B92
:102FD0000546012B18DC029B83B9039BC3F3130343
:102FE00073B9039B23F000473F0D3F054FB1079B8B
:102FF00008F1010801330793012702E0002700E0F0
:10300000029F0B9B73B100E000272B6905EB830344
:10301000186900F028FCC0F1200004E01E9B012B81
:10302000D9DD0B9F0120079B184410F01F0008D02A
:10303000C0F12003042B02DDC0F11C0002E006D029
:1030400018461C30079B8044034404440793B8F19E
:10305000000F05DD42460499504600F039FD04900A
:10306000079B002B05DD29461A46504600F030FD2F
:103070000546109B23B32946049800F07AFD0028EA
:103080001EDA00230A220499504600F0B1FB0A9B85
:103090000BF1FF3B0490002B00F05F8131460023D1
:1030A0000A22504600F0A4FBB9F1000F06463FDCAF
:1030B0003BE000BF684100080000144000002440CD
:1030C000059B002B2BDC1E9B022B28DDDDF81490CA
:1030D000B9F1000F11D129464B460522504600F0A8
:1030E00087FB01460546049800F043FD00280CDCF0
:1030F00003E0354600E000252E461F9B069C6FEA44
:10310000030B09E03546DDF820B0069B069A5C1CEF
:10311000312313700BF1010B05960026F7E00A9B93
:10312000DDF8149023B9069CB2E01E9B022BCFDC85
:10313000002C05DD31462246504600F0C9FC06460B
:103140009FB17168504600F007FB0446326906F1F2
:103150000C01023292000C30FEF766FE012221467D
:10316000504600F0B5FC059000E00596029B069FD6
:1031700003F00103079329460498FFF7D7FA314675
:10318000044600F13008049800F0F3FC059A029020
:103190002946504600F009FDC36802463BB9014686
:1031A0000A90049800F0E5FC0A9A034600E0012327
:1031B000114650460A9300F004FB0A9B53B91E9A2D
:1031C00042B9079A32B9B8F1390F2AD0029B002BC5
:1031D0001CDC1DE0029A002A04DB1BD11E9ACAB92E
:1031E000079ABAB9002B13DD01220499504600F06A
:1031F0006FFC2946049000F0BCFC002803DC07D1DA
:1032000018F0010F04D0B8F1390F0AD004F13108D9
:103210007C1C0CE0002B07F101040BDDB8F1390F29
:1032200003D139233B70013756E008F1010887F8D4
:1032300000806CE0069B2746E31A4B4504F8018C9E
:103240003BD000230A220499504600F0D1FA059B96
:1032500004909E424FF00A024FF000033146504660
:1032600004D100F0C5FA0646059084E700F0C0FAE4
:10327000002306460A220599504600F0B9FA059047
:1032800079E700230A220499504600F0B1FA04902D
:1032900029460498FFF74AFA069B00F1300804F823
:1032A000018BE31A4B45ECDB069B0596B9F1010F48
:1032B000ACBF4B4401331F460026012204995046FF
:1032C00000F006FC2946049000F053FC002803DCC3
:1032D00015D118F0010F12D03C4614F8013C621EC3
:1032E000392B09D1069B934204D10BF1010B3123F9
:1032F000069A02E01446F0E70133137007E03C46FB
:1033000014F8013C621E302B01D11446F8E729461F
:10331000504600F056FA059B6BB12EB19E4203D089
:103320003146504600F04DFA0599504600F049FAF2
:1033300001E0DDF820B00499504600F042FA002385
:10334000209A23700BF101031360229B1BB11C60B8
:1033500001E008480AE0069808E0B9F1000F3FF7DD
:10336000E2AE1E9B022B7FF7DEAEB1E615B0BDE8E4
:10337000F08F00BFF84000088A892DE9F04105462A
:1033800010070C4659D44B68002B02DC0B6C002B49
:1033900017DDE66AAEB102F48052002392B22F68C4
:1033A0002B600AB1606D15E0216A01232846B04701
:1033B000411C0FD12B686BB11D2B01D0162B03D1F3
:1033C0002F600020BDE8F081A38943F04003A38172
:1033D000BDE8F081A3895A0705D56368C01A636BFD
:1033E0000BB1236CC01A00230246E66A216A284604
:1033F000B047431CA38906D129681D2939D8204A22
:10340000CA40D60735D5002262602269D9042260FD
:1034100004D5421C01D12B6803B96065616B2F6034
:103420000029CED004F14403994202D0284600F08E
:1034300077FC00206063BDE8F0810F69002FC0D0E9
:1034400093070E680CBF4B690023C7EB06080F609B
:103450008B6002E00744C0EB0808B8F1000FB0DD54
:1034600043463A46216A2846A66AB0470028F1DC5E
:10347000A38943F04003A3814FF0FF30BDE8F08102
:103480000100402038B50B6905460C46DBB118B188
:1034900083690BB900F060F80C4B9C4201D16C6859
:1034A00008E00B4B9C4201D1AC6803E0094B9C4205
:1034B00008BFEC68B4F90C302BB121462846BDE8B2
:1034C0003840FFF759BF002038BD00BF0841000851
:1034D0002841000848410008014900F0A9B800BF90
:1034E0008534000810B50446002303604360836000
:1034F00081814366C2810361436183611946082269
:103500005C30FEF79CFC054B24626362044BA362B3
:10351000044BE362044B236310BD00BF953E0008DB
:10352000B73E0008EF3E0008133F000870B568235F
:103530004D1E5D430E4605F1740100F03DFC04464E
:1035400040B1002180E842000C30A06005F1680223
:10355000FEF775FC204670BD836910B5044633BB89
:103560008364C3640365124B124A1B6882629842EB
:1035700004BF0123836100F01FF86060204600F063
:103580001BF8A060204600F017F80022E06004213C
:103590006068FFF7A7FF01220921A068FFF7A2FFDB
:1035A00002221221E068FFF79DFF0123A36110BDF5
:1035B000E4400008D9340008F8B51C4B07461E68E3
:1035C000B36913B93046FFF7C7FF4836B46873686C
:1035D000013B04D4B4F90C507DB16834F8E733688A
:1035E0000BB13668F2E704213846FFF79FFF3060E1
:1035F0000028F6D10C233B60F8BD4FF6FF73E38142
:103600000123A38165662560A5606560256165610C
:10361000A5610822294604F15C00FEF710FC6563F1
:10362000A563A564E5642046F8BD00BFE44000083A
:103630002DE9F8438046894600F14804002694B1FC
:10364000A5686768013F0CD4AB89012B07D9B5F990
:103650000E30013303D029464046C847064368353B
:10366000F0E72468EBE73046BDE8F883044B1B68BD
:10367000186A044B002808BF1846F030704700BF96
:103680007C0000208000002070B50E46B1F90E10BD
:1036900090B0002914461D4606DA00232B60B3893A
:1036A0001A060ED540230EE001AA00F059FC0028AE
:1036B000F3DB029A02F47042A2F500535A425A41D7
:1036C0002A604FF480630020236010B070BD0000BA
:1036D0008B8973B59E0705460C4610D401AB6A462C
:1036E000FFF7D2FF00990646284600F065FB68B94F
:1036F000B4F90C309A0522D443F00203A38104F1FB
:103700004703236023610123636118E00D4BAB6223
:10371000A389206043F08003A381009B2061636143
:10372000019B4BB1B4F90E10284600F02BFC18B1E8
:10373000A38943F00103A381A0893043A08102B093
:1037400070BD00BFD9340008024B0146186800F074
:1037500033BB00BF7C00002070B5456A04460E46AE
:103760003DB91020FFF7F0FF60624560856005609D
:10377000C560656AEB6843B1636ADB6853F826008D
:1037800078B1026843F8262017E021220421204660
:1037900000F0B8FA636AE860DB68002BECD1002027
:1037A00070BD012101FA06F56A1D9200204600F065
:1037B000A9FA0028F3D04660856000230361C36046
:1037C00070BD70B5446A06460D463CB91020FFF73F
:1037D000BBFF7062446084600460C4603DB1736A82
:1037E0006A68DB6853F82210296043F8225070BDE4
:1037F0002DE9F04106460C460D691F4601F1140EF5
:103800000023DEF80000013381B202FB0171000CDD
:103810000F0C02FB007089B201EB00419D424FEAA0
:1038200010474EF8041BECDCD7B1A3689D4212DBB5
:10383000616830460131FFF78FFF8046226904F14D
:103840000C01023292000C30FEF7EEFA21463046AF
:10385000FFF7B7FF444604EB850301355F6125613F
:103860002046BDE8F081030C1B0413B900041023AB
:1038700000E0002310F07F4F04BF0002083310F077
:10388000704F04BF0001043310F0404F04BF8000AC
:103890000233002803DB420003D5581C704718464A
:1038A000704720207047036813F007020BD0D90738
:1038B00022D49A074BBF5B089B08036003604CBF90
:1038C00001200220704799B209B91B0C102213F095
:1038D000FF0F04BF1B0A0832190704BF1B0904327B
:1038E000990704BF9B080232D90702D45B0805D0B0
:1038F0000132036010467047002070472020704757
:1039000010B50C460121FFF727FF01224461026137
:1039100010BD2DE9F74F14460A69236988469A427B
:10392000BEBF0B46A0461C46D8F81070D4F81090C5
:10393000D8F80830D8F8041007EB09069E42C8BF33
:103940000131FFF709FF00F114052B4605EB860C4A
:103950000022634502D243F8042BFAE704F1140273
:1039600008F1140102EB890301EB87070093009B28
:103970000192934257D9B2F800B0BBF1000F23D0A7
:103980008946AE464FF0000859F8044BBEF800A037
:10399000A3B20BFB03A34FEA144ADEF800404344F2
:1039A0004FEA14480BFB0A84F24604EB13449BB223
:1039B00043EA04434F454FEA14484AF8043B01D90F
:1039C000D646E1E7CEF80480019B0432B3F802A0AA
:1039D000BAF1000F21D02C4689462B684FF0000821
:1039E000B9F800E0B4F802B09BB20AFB0EBEA346E1
:1039F000F04443EA08434BF8043B59F8043BB4F85D
:103A000004E01B0C0AFB03E34F4503EB18434FEAAA
:103A1000134801D95C46E3E763600435A7E75CF827
:103A2000043D13B9013E002EF9DC066103B0BDE888
:103A3000F08F00002DE9F843154612F00302064608
:103A40000F4607D0214C013A002354F82220FFF7FB
:103A5000CFFE0746AD1036D0746A3CB91020FFF790
:103A600073FE7062446084600460C460D6F8248091
:103A7000D8F808404CB940F271213046FFF740FFBA
:103A800004460023C8F8080003604FF00008EB0765
:103A90000AD5394622463046FFF73BFF8146394674
:103AA0003046FFF78EFE4F466D100CD0206808B1EF
:103AB0000446ECE7224621463046FFF72AFF206005
:103AC000C0F80080F4E73846BDE8F88358420008A3
:103AD0002DE9F0470C460746914626694FEA621ADF
:103AE00056444968A368751CAB4202DA01315B0099
:103AF000FAE73846FFF730FE002380461A4600F109
:103B00001401534503DA41F823200133F9E72AEA87
:103B1000EA73206901EB830319F01F0904F1140112
:103B200001EB800E14D0C9F1200C002208689A46DF
:103B300000FA09F0024343F8042B51F8042B8E4598
:103B400022FA0CF2F2D8CAF8042042B1B51C06E001
:103B5000043B51F8042B8E4543F8042FF9D8013D5E
:103B60003846C8F810502146FFF72BFE4046BDE806
:103B7000F08703690A6910B59B1A11D192001430BD
:103B8000143183180A4453F8044D52F8041D8C4232
:103B900002D007D3012010BD9842F4D3002010BDFD
:103BA000184610BD4FF0FF3010BD2DE9F8430C460C
:103BB0000746114620461546FFF7DBFF061E08D1D3
:103BC00031463846FFF7C8FD012303614661BDE871
:103BD000F883BCBF23462C4638466168BABF1D46F1
:103BE00001260026FFF7B8FD2B69C660266905F19E
:103BF000140904F1140101EB860709EB830800F1B5
:103C000014054FF0000C51F8042B59F8044B93B2F3
:103C10009C44A3B2240CC3EB0C03C4EB124202EB92
:103C200023429BB24FEA224CC84543EA02428E46E9
:103C300045F8042BE7D8BE450ED25EF8041B8AB2C5
:103C40006244131403EB114392B242EA03424FEA77
:103C5000234C45F8042BEEE755F8043D0BB9013E23
:103C6000FAE70661BDE8F8832DE9F3411C4601211E
:103C70009046089E099DFFF76FFDC4F31302C4F33D
:103C80000A5407460CB142F480120192B8F1000FB9
:103C900019D002A840F8088DFFF705FE009B48B137
:103CA000019AC0F1200102FA01F10B43C2407B618D
:103CB000019200E07B61019B002B14BF02210121D6
:103CC000BB61396107E001A8FFF7EDFD019B012110
:103CD0007B613961203034B1A4F233440444346050
:103CE000C0F1350009E0A0F2324007EB81033060FB
:103CF0001869FFF7B8FDC0EB41102860384602B0E4
:103D0000BDE8F08138B502FB01F4214600F054F81B
:103D1000054618B122460021FEF791F8284638BD25
:103D200038B50546002944D051F8043C0C1F002B3F
:103D3000B8BFE41800F05AF91E4A1368114613B9C7
:103D40006360146030E0A3420DD92268A01883425A
:103D500001BF18685B681218226063600C6023E082
:103D6000A24203D813465A68002AF9D118681918D4
:103D7000A1420BD12168014458188242196013D125
:103D800010685268014419605A600DE002D90C2392
:103D90002B6009E021686018824201BF10685268F8
:103DA0000918216062605C602846BDE8384000F078
:103DB0001EB938BD2C47002070B5CD1C25F0030579
:103DC00008350C2D38BF0C25002D064601DBA94215
:103DD00002D90C23336046E000F008F9234B1C683D
:103DE0001A462146A1B10B685B1B0ED40B2B03D9DD
:103DF0000B60CC18CD501EE08C420BBF63684B6843
:103E00001360636018BF0C4615E00C464968E9E78B
:103E1000174C23681BB9304600F02CF82060294667
:103E2000304600F027F8431C18D0C41C24F00304CB
:103E3000A0420DD12560304600F0D9F804F10B0006
:103E4000231D20F00700C31A0ED05A42E25070BD65
:103E5000211A304600F00EF80130EBD10C2333600C
:103E6000304600F0C4F8002070BD00BF2C47002091
:103E70002847002038B5064C002305460846236035
:103E800000F0FEF8431C02D1236803B12B6038BD5B
:103E90003447002010B50C46B1F90E1000F0A8F818
:103EA0000028ABBF636DA3891B1823F48053ACBFFC
:103EB0006365A38110BD2DE9F0411F468B8905463E
:103EC000DB050C46164605D502230022B1F90E107B
:103ED00000F068F8A389324623F48053A381B4F933
:103EE0000E103B462846BDE8F04100F017B810B56B
:103EF0000C46B1F90E1000F055F8431CA38915BF0C
:103F0000606523F4805343F48053A38118BFA381D9
:103F100010BDB1F90E1000F013B8000038B5074C11
:103F2000054608461146002222601A46FDF7A8FE03
:103F3000431C02D1236803B12B6038BD34470020F5
:103F400038B5064C002305460846236000F070F89B
:103F5000431C02D1236803B12B6038BD34470020D5
:103F600038B5074C0023054608461146236000F08B
:103F700067F8431C02D1236803B12B6038BD00BF32
:103F80003447002038B5064C002305460846236018
:103F900000F05EF8431C02D1236803B12B6038BDEA
:103FA0003447002038B5074C054608461146002224
:103FB00022601A4600F054F8431C02D1236803B172
:103FC0002B6038BD3447002082B001B901A93AB155
:103FD00043B113780B601278101C18BF012003E066
:103FE000104601E06FF0010002B070477047704763
:103FF00038B5074C054608461146002222601A468D
:1040000000F036F8431C02D1236803B12B6038BDA1
:104010003447002049B1FF2A85BF8A2303600A7014
:104020004FF0FF3098BF01207047084670470000EE
:10403000024B58221A604FF0FF307047344700207F
:10404000024B58221A604FF0FF307047344700206F
:10405000024B58221A600020704700BF34470020EE
:10406000024B58221A604FF0FF307047344700204F
:10407000024B58221A604FF0FF307047344700203F
:10408000044A05491368002B08BF0B46184410600A
:1040900018467047304700203847002049444C45B7
:1040A000000000005072696E74205461736B2069C7
:1040B000732072756E696E6720657665727920313E
:1040C000207365636F6E642E2E2E00005461736B37
:1040D000315F4C45440000005461736B325F507295
:1040E000696E74001C000020494E4600696E66002F
:1040F0004E414E006E616E003000496E66696E6919
:104100007479004E614E00000000000000000000C5
:10411000000000000000000000000000000000009F
:10412000000000000000000000000000000000008F
:10413000000000000000000000000000000000007F
:10414000000000000000000000000000000000006F
:10415000000000000000000000000000000000005F
:104160000000000000000000000000000000F03F20
:104170000000000000002440000000000000594042
:104180000000000000408F40000000000088C34095
:1041900000000000006AF8400000000080842E410A
:1041A00000000000D01263410000000084D7974156
:1041B0000000000065CDCD41000000205FA002425C
:1041C000000000E876483742000000A2941A6D42D1
:1041D000000040E59C30A2420000901EC4BCD642C4
:1041E00000003426F56B0C430080E03779C341436F
:1041F00000A0D8855734764300C84E676DC1AB43E5
:10420000003D9160E458E143408CB5781DAF154402
:1042100050EFE2D6E41A4B4492D54D06CFF08044DD
:10422000F64AE1C7022DB544B49DD9794378EA44F2
:104230000080E03779C34143176E05B5B5B89346A2
:10424000F5F93FE9034F384D321D30F94877825A6E
:104250003CBF737FDD4F157505000000190000009D
:104260007D0000004300504F534958002E000020AD
:104270002020202020202020282828282820202016
:1042800020202020202020202020202020202088C6
:10429000101010101010101010101010101010042A
:1042A000040404040404040404101010101010107A
:1042B000414141414141010101010101010101016E
:1042C0000101010101010101010110101010101084
:1042D000424242424242020202020202020202023E
:1042E000020202020202020202021010101020005A
:1042F00000000000000000000000000000000000BE
:1043000000000000000000000000000000000000AD
:10431000000000000000000000000000000000009D
:10432000000000000000000000000000000000008D
:10433000000000000000000000000000000000007D
:10434000000000000000000000000000000000006D
:10435000000000000000000000000000000000005D
:10436000000000000000000000000000000000004D
:10437000F8B500BFF8BC08BC9E467047F8B500BF52
:08438000F8BC08BC9E46704722
:0443880035010008F3
:04438C001101000813
:10439000AAAAAAAA0400000002040608000000005D
:1043A00001020304010203040607080900000000DB
:1043B00008410008284100084841000800000000AA
:1043C00000000000000000000000000000000000ED
:1043D00000000000000000000000000000000000DD
:1043E00000000000000000000000000000000000CD
:1043F00000000000000000000000000000000000BD
:104400000000000000000000000000001C00002070
:104410004300000000000000000000000000000059
:10442000000000000000000000000000000000008C
:104430004300000000000000000000000000000039
:10444000000000000000000000000000000000006C
:104450004300000000000000000000000000000019
:10446000000000000000000000000000000000004C
:1044700043000000000000000000000000000000F9
:10448000000000000000000000000000000000002C
:1044900043000000000000000000000000000000D9
:1044A000000000000000000000000000000000000C
:1044B00043000000000000000000000000000000B9
:1044C00000000000000000000000000000000000EC
:1044D0004300000000000000000000000000000099
:1044E00000000000000000000000000000000000CC
:1044F00015400008C93F0008000000006E42000897
:104500006C4200086D4200086D4200086D420008D0
:104510006D4200086D4200086D4200086D420008BF
:104520006D4200086D420008FFFFFFFFFFFFFFFF25
:10453000FFFFFFFFFFFF0000010041534349490017
:10454000000000000000000000000000000000006B
:1045500000000000000000000000415343494900F2
:10456000000000000000000000000000000000004B
:0C4570000000000000000000000000003F
:0400000508001B6173
:00000001FF
